:040000000128FE2FA6
:100DB800A03420341F340B343B344B345B34603460
:100DC800EE3021008C00E2308E00951324008C1642
:100DD8008C140800F100710824009100141CF22EF4
:100DE8001108F0007008F20072080800240095014C
:100DF800C030940002309500200091112100911517
:100E080024009516080022000C146830F000E43025
:100E1800890B0C2FF00B0C2F003222000C106830BD
:100E2800F000E430890B162FF00B162F0032080063
:100E3800F40022000E12DC308400863085000008A1
:100E4800EE267408EE2622000E168E154230890B07
:100E58002B2F003222000E12FF30EE26F30073080B
:100E6800F50022000E16F51E2F2F8E110E12DD3002
:100E780084008630850000080738EE26F3007308E2
:100E8800F50075087038EE2622000E1608002200BC
:100E98000E16F801F80AE426FA2622000C107C2720
:100EA80022000E120030EE26FF30EE26F6007608FD
:100EB800F70022000E165A307706031D6E2F031016
:100EC80020000C1C0314031C6C2F22000C146E2F22
:100ED80022000C1020000C0E890C01397806031929
:100EE800542F00308C1A0130F800FF301C27542F83
:100EF80022000E12DD308400863085000008EE26C0
:100F08005A30EE2622000E160E120030EE26FF3062
:100F1800EE265A3A0319922F07278B2F22000E1616
:100F28000E12DD3084008630850000080138EE2678
:100F38000130EE2622000E160E12DD3084008630B7
:100F4800850000080238EE260130EE2622000E1633
:100F58000E12DD3084008630850000081138EE2638
:100F68000130EE2622000E160E12DD308400863087
:100F7800850000080338EE260330EE2622000E1600
:100F88000E12DD3084008630850000081038EE2609
:100F9800F401053074020318DB2FE730EE26013028
:100FA800F3007308F40705307402031CD12F2200E4
:100FB8000E160E12DD3084008630850000080A38CF
:100FC800EE26F501053075020318FB2F7508DF3E84
:100FD800840086300318013E85000008EE260130A3
:100FE800F3007308F50705307502031CEA2F220089
:080FF8000E16080020004B2F2B
:020000040001F9
:04000E00E4F9FFDF33
:00000001FF
