:040000000128FE2FA6
:100E160061340B343B344B345B346034240095121C
:100E2600403094002230950095160800EE302100DF
:100E36008C00E2308E00951324008C1408002200EA
:100E46000C143430F200F230890B272FF20B272FC7
:100E560022000C103430F200F230890B302FF20BE6
:100E6600302F0800F300F01622000E12700824003E
:100E76009100141C3C2F1108F1007108F200730850
:100E86009100141C442F1108F1007108F200220091
:100E96000E160800F1001F30F0007008F105220060
:100EA6000E12710824009100141C572F1108F0002F
:100EB6007008F200FF309100141C5F2F1108F0003B
:100EC6007008F20022000E167208080022008E1525
:100ED6008C186B2F8E110E120B3084008730850014
:100EE600000824009100141C762F1108F4007408E1
:100EF600F500FF309100141C7E2F1108F4007408D1
:100F0600F50022000E167030F4007408F000073069
:100F1600352775080800192722000C101127BF274E
:100F2600FA01BF276927F7007708F80000304D2738
:100F3600F7007708F9003F307906031DA72F6430C4
:100F4600F0000030F1002227780A031D942F7A085A
:100F5600031DAF2F0130B02F0030F7007708FA00DD
:100F66007A0C2200031C0C1003180C141430F00029
:100F76000030F1002227942F3F30F4007408F0006F
:100F860000303527F001F00A01303527F001F00A6C
:100F960002303527F001F00A113035270330F4000E
:100FA6007408F0000330352722000E122A30240080
:100FB6009100141CDC2F1108F4007408F500F601EA
:100FC600053076020318F72FE7309100141CE92F3D
:100FD6001108F4007408F5000130F4007408F607EF
:100FE60005307602031CE72F22000E165630890BB9
:0A0FF600FA2F0032080020008E2FB1
:020000040001F9
:04000E00E4F9FFDF33
:00000001FF
