:040000000128FE2FA6
:1009BA000B343B344B345B3460341F342034A03462
:1009CA00EE3021008C00E2308E00951324008C1644
:1009DA008C14080024009512E5242400151214171B
:1009EA009417F030950595160800F1007108240057
:1009FA0091002000911DFE2C911124001108F00095
:100A0A007008F2007208080022000C146830F00026
:100A1A00E430890B0E2DF00B0E2D003222000C1043
:100A2A006830F000E430890B182DF00B182D0032D5
:100A3A000800FB007B082000A000A101A2012008F9
:100A4A00F0002108F1002208F2008E30A3002308EA
:100A5A00F300F40166257008F8007108F9007208BD
:100A6A00FA000800F40022000E12E43084008430F8
:100A7A0085000008FA247408FA2422000E168E153E
:100A8A004230890B462D003222000E12FF30FA2422
:100A9A00F3007308F50022000E16F51E4A2D8E117A
:100AAA000E12E33084008430850000080738FA24E7
:100ABA00F3007308F50075087038FA2422000E1640
:100ACA000800730803196E2D720871047004031D5F
:100ADA007F2D0030F0000030F1000030F2000800F5
:100AEA000130F5007508F3070130F236F10CF00C0D
:100AFA00890B7A2DFE3072050319982D752D013058
:100B0A00F5007508F3070130F007003003180130CB
:100B1A00F107003003180130F2070130F236F10C08
:100B2A00F00C890B932DFF3072050319A52D842D26
:100B3A000130F3020130F035F10DF20D890BA02DD1
:100B4A00F11BAB2D0230730203189D2D7318B32DC0
:100B5A00FF30F0057F30F105FF30F2050310F30C8A
:100B6A007308F500F601F7011030F535F60DF70DAB
:100B7A00890BBA2D7508F0047608F1047708F20497
:100B8A00740803190800F217080022000E12E33055
:100B9A008400843085000008FA245A30FA2422009E
:100BAA000E160E12E33084008430850000080138E6
:100BBA00FA240130FA2422000E160E12E3308400C1
:100BCA008430850000080238FA240130FA24220011
:100BDA000E160E12E33084008430850000081138A6
:100BEA00FA240130FA2422000E160E12E330840091
:100BFA008430850000080338FA240330FA242200DE
:100C0A000E160E12E3308400843085000008103876
:100C1A00FA24F4010530740203181D2EE730FA2471
:100C2A000130F3007308F40705307402031C132E15
:100C3A0022000E160E12E33084008430850000086C
:100C4A000A38FA24F5010530750203183D2E750895
:100C5A00DD3E840084300318013E85000008FA2432
:100C6A000130F3007308F50705307502031C2C2EBA
:100C7A0022000E16080022000E162000C701C70A1D
:100C8A00EF2422000C10CA2522000E12FF30FA248B
:100C9A002000C2004208C80022000E160C142000D0
:100CAA0048081E2578082000A7007908A8007A08B5
:100CBA00A9000030A4007A30A5004530A6004B27D1
:100CCA0020002408B4002508B5002608B600C4266A
:100CDA0020003408C2003508C3003608C4003708AB
:100CEA00C50022000C10200048081E2578082000A4
:100CFA00A7007908A8007A08A9000030A4007A3071
:100D0A00A5004530A6004B2720002408B40025087A
:100D1A00B5002608B600C42620003408C2003508EB
:100D2A00C3003608C4003708C50022000E1200307E
:100D3A00FA24FF30FA242000C2004208C60022002A
:100D4A000E165A3020004606031DB62E03100C1C40
:100D5A000314031CB32E22000C14B52E22000C100F
:100D6A00092520000C0E890C013947060319492E62
:100D7A0000308C1A0130C700FF303725492E200079
:100D8A003408B8003508B9003608BA000310390D1E
:100D9A003A0DBB003B08C1004108031DDD2E00309F
:100DAA00B7000030B6000030B5000030B4000800CB
:100DBA003408B8003508B9003608BA001730BA3610
:100DCA00B90CB80C890BE42E3808BB003B08BC00F0
:100DDA00B517FF30B405FF30B5050030B605340845
:100DEA00BD003508BE003608BF00C0018E30C10202
:100DFA00C11F1B2F4108803A8F3E03180D2F003068
:100E0A00B7000030B6000030B5000030B40008006A
:100E1A000130C036BF0CBE0CBD0C890B0E2F013041
:100E2A00B8003808C1070319342F0D2F18304102B2
:100E3A00031C312F0030B7000030B6000030B50077
:100E4A000030B40008000130BD35BE0DBF0DC00D25
:100E5A00890B292F0130C1024108031D282F3C08A4
:100E6A000319422FBD09BE09BF09C009BD0A0319EA
:100E7A00BE0A0319BF0A0319C00A4008B7003F088F
:100E8A00B6003E08B5003D08B4000800200024085A
:100E9A00AA002508AB002608AC0003102B0D2C0D68
:100EAA00AD002D08AE002E08031D622F0030A400ED
:100EBA000030A5000030A60008002708AA0028086C
:100ECA00AB002908AC0003102B0D2C0DAD002D082A
:100EDA00B3003308031D782F0030A4000030A500AA
:100EEA000030A600080033087B3EAA002A08AE0795
:100EFA002408AA002508AB002608AC001030AC363E
:100F0A00AB0CAA0C890B842F2A08AD002D08B3005C
:100F1A002708AA002808AB002908AC001030AC3614
:100F2A00AB0CAA0C890B942F2A08AD002D08B30626
:100F3A008030AA002A08B305A517A817FF30A7050D
:100F4A00FF30A8050030A9050030AF000030B0001E
:100F5A000030B1000730AA002A08B200241CBB2FB7
:100F6A002708AF072808B03D2908B13D0130A63649
:100F7A00A50CA40C890BBC2F0130A735A80DA90D0F
:100F8A00890BC22F0130B202031DB32F0930AA0008
:100F9A002A08B200241CD72F2708AF072808B03D1B
:100FAA002908B13D0130A636A50CA40C890BD82F0F
:100FBA000130B136B00CAF0C890BDE2F0130B20212
:100FCA00031DCF2F2F08F0003008F1003108F2007E
:100FDA002E08AA002A08F3003308AB002B08F400F5
:100FEA00662570082000A4007108A5007208A600F2
:060FFA0008002000402E5B
:020000040001F9
:04000E00E4F9FFDF33
:00000001FF
