:040000000128FE2FA6
:100DD6001134123413341434153416340A340B34E3
:100DE6000C340D340E340F3410342400951234278D
:100DF6002400151214179413F03095052000911154
:100E0600240095160800F1002400951314107108AB
:100E16009100141C0C2F1108F0007008F2007208E3
:100E26000800F40022008E1174081F3920380627A6
:100E3600FF300627F3007308F50022008E157508AB
:100E46000800FA00A030F9007908FB007A08F900DA
:100E56007908FC000230F9007908F3007B3061273D
:100E6600080021008E110E100E118E148C168C1097
:100E76000E120C15951324008C16103022009D00BE
:100E860023008C018E010800FD01FD0AF8262200D0
:100E96008C10A32720000C0E890C01397D0603193E
:100EA6004D2F00308C1A0130FD007D0C2200031CF2
:100EB6008C1003188C14CF3024274D2FF8002200F5
:100EC6008E11F701730877020318792F77087807D0
:100ED600F40074088600870101080627F5007508E6
:100EE600F6000130F4007408F707652F22008E150E
:100EF6000800F30022008C14F10173087102031834
:100F0600902F3430F000F230890B872FF00B872FAB
:100F16000130F0007008F107802F22008C10F201DA
:100F260073087202031808003430F000F230890B9F
:100F36009A2FF00B9A2F0130F0007008F207932FCA
:100F460022000E120630F9003030890BA82FF90B5B
:100F5600A82F003222008E153430F900F230890BAA
:100F6600B22FF90BB22FFA015A30F9007908FB00BB
:100F76000230F9007908F3007A306127003014272F
:100F86005A3A031DC82F0A307C27FA01FA0AFB01D8
:100F9600FB0A0230F9007908F3007A306127023043
:100FA600F9007908FA00FB01FB0A0230F90079081A
:100FB600F3007A306127EB30840086308500000824
:100FC6001F39F9007908FA00FB01FB0A0230F90023
:100FD6007908F3007A3061270330F9007908FA00BE
:100FE6000330F9007908FB000230F9007908F300B4
:0A0FF6007A30612708002000472F21
:020000040001F9
:04000E00E4F9FFDF33
:00000001FF
