:040000000128FE2FA6
:100DB0001134123413341434153416340A340B3409
:100DC0000C340D340E340F341034240095121227D5
:100DD0002400151214179413F0309505200091117A
:100DE000240095160800F40022008E1174081F39A3
:100DF0000227FF300227F3007308F50022008E154A
:100E000075080800F1007108240091002000911D70
:100E1000062F24001108F0007008F2002000911144
:100E20007208080021008E110E100E118E148C16FF
:100E30008C100E120C15951324008C160C15103006
:100E400022009D0023008C018E010800F800220082
:100E50008E11F7017308770203183E2F7708780781
:100E6000F40074088600870101080227F500750860
:100E7000F6000130F4007408F7072A2F22008E15BF
:100E80000800FA00A030F9007908FB007A08F900A0
:100E90007908FC000230F9007908F3007B3026273E
:100EA00022000E164230890B532F003222000E1200
:100EB00020000C1D0800582FFD01FD0AE526220028
:100EC0008C10A42720000C0E890C01397D06031913
:100ED000752F00308C1A0130FD007D0C2200031CA0
:100EE0008C1003188C14CF3041270030F3265A3A67
:100EF000031D622F05307D27622FF30022008C1422
:100F0000F101730871020318912F3430F000F230B0
:100F1000890B882FF00B882F0130F0007008F10743
:100F2000812F22008C10F20173087202031808004E
:100F30003430F000F230890B9B2FF00B9B2F0130E7
:100F4000F0007008F207942F22000E120630F9000C
:100F50003030890BA92FF90BA92F003222008E15F2
:100F60003430F900F230890BB32FF90BB32F203056
:100F7000F9007908FA005A30F9007908FB000230CC
:100F8000F9007908F3007A3026272130F900790832
:100F9000FA00FB01FB0A0230F9007908F3007A300D
:100FA00026272230F9007908FA00FB01FB0A0230FB
:100FB000F9007908F3007A302627D830840086308B
:100FC000850000081F392038F9007908FA00FB0174
:100FD000FB0A0230F9007908F3007A302627233023
:100FE000F9007908FA000330F9007908FB000230B3
:100FF000F9007908F3007A302627080020005C2FDA
:020000040001F9
:04000E00E4F9FFDF33
:00000001FF
