:040000000128FE2FA6
:100D6E001134123413341434153416340A340B344B
:100D7E000C340D340E340F34103424009512002729
:100D8E002400151214179413F030950520009111BC
:100D9E00240095160800F40022008E1174081F39E5
:100DAE00F026FF30F026F3007308F50022008E15B2
:100DBE00750808002730F9007908FA007030F9003C
:100DCE007908FB000230F9007908F3007A302E27FB
:100DDE000800F1007108240091002000911DF42EEE
:100DEE0024001108F0007008F20020009111720822
:100DFE00080021008E110E100E118E148C168C1000
:100E0E000E120C15951324008C160C1510302200A2
:100E1E009D0023008C018E010800FD01FD0AC426F1
:100E2E0022008C10992720000C0E890C01397D06AA
:100E3E0003191A2F00308C1A0130FD007D0C220090
:100E4E00031C8C1003188C14CF3070271A2FF80047
:100E5E0022008E11F701730877020318462F7708C8
:100E6E007807F4007408860087010108F026F50063
:100E7E007508F6000130F4007408F707322F2200CF
:100E8E008E150800F30022008C14F1017308710214
:100E9E0003185D2F3430F000F230890B542FF00B15
:100EAE00542F0130F0007008F1074D2F22008C10E6
:100EBE00F20173087202031808003430F000F230A9
:100ECE00890B672FF00B672F0130F0007008F207C7
:100EDE00602F2000A000A030FC007C08A10020089C
:100EEE00FC007C08A2000230FC007C08F3002130DC
:100EFE002E2722000E161430890B832F22000E127D
:100F0E0020000C19872F22008E11FF30F026FC00D6
:100F1E007C082000A30022008E15E1262000A31AD3
:100F2E000800802F22000E120630F9003030890B97
:100F3E009E2FF90B9E2F003222008E153430F900B1
:100F4E00F230890BA82FF90BA82F2030F900790861
:100F5E00FA004A30F9007908FB000230F9007908EE
:100F6E00F3007A302E272130F9007908FA00FB01C0
:100F7E00FB0A0230F9007908F3007A302E2722306E
:100F8E00F9007908FA00FB01FB0A0230F900790832
:100F9E00F3007A302E27B7308400863085000008A3
:100FAE001F392038F9007908FA00FB01FB0A0230DC
:100FBE00F9007908F3007A302E272330F9007908EA
:100FCE00FA000330F9007908FB000230F9007908C5
:100FDE00F3007A302E270030D2264A3A031D08003D
:100FEE0001304927013049270130492708002000E8
:020FFE00142FAE
:020000040001F9
:04000E00E4F9FFDF33
:00000001FF
